19:46:48.316126 IP 10.10.10.119.38548 > 10.10.10.119.ldap: Flags [P.], seq 1:92, ack 1, win 683, options [nop,nop,TS val 2107811
 ecr 2107811], length 91                                                                                                        
        0x0000:  4500 008f 30d6 4000 4006 e091 0a0a 0a77  E...0.@.@......w                                                      
        0x0010:  0a0a 0a77 9694 0185 1735 1978 dd04 3e9b  ...w.....5.x..>.                                                      
        0x0020:  8018 02ab 2983 0000 0101 080a 0020 29a3  ....).........).                                                      
        0x0030:  0020 29a3 3059 0201 0160 5402 0103 042d  ..).0Y...`T....-                                                      
        0x0040:  7569 643d 6c64 6170 7573 6572 322c 6f75  uid=ldapuser2,ou                                                      
        0x0050:  3d50 656f 706c 652c 6463 3d6c 6967 6874  =People,dc=light                                                      
        0x0060:  7765 6967 6874 2c64 633d 6874 6280 2038  weight,dc=htb..8                                                      
        0x0070:  6263 3832 3531 3333 3261 6265 3164 3766  bc8251332abe1d7f                                                      
        0x0080:  3130 3564 3365 3533 6164 3339 6163 32    105d3e53ad39ac2
